:020000040800F2
:10000000A006002065010008911900085519000894
:1000100000000000000000000000000000000000E0
:10002000000000000000000000000000E1190008CE
:10003000000000000000000093190008091A0008E1
:1000400077010008770100087701000877010008B0
:1000500077010008770100087701000877010008A0
:100060007701000877010008770100087701000890
:100070007701000877010008770100087701000880
:1000800077010008691A00089D1A00087701000826
:100090007701000877010008770100087701000860
:1000A0007701000877010008770100087701000850
:1000B0007701000877010008770100087701000840
:1000C00000F002F800F03EF80CA030C80838241800
:1000D0002D18A246671EAB4654465D46AC4201D180
:1000E00000F030F87E460F3E0FCCB6460126334274
:1000F00000D0FB1AA246AB46334318470431000038
:1001000024310000103A02D378C878C1FAD85207D7
:1001100001D330C830C101D504680C6070470000BD
:100120000023002400250026103A01D378C1FBD813
:10013000520700D330C100D50B6070471FB51FBDFB
:1001400010B510BD00F0DEFF1146FFF7F7FF02F01B
:1001500041F900F0F6FF03B4FFF7F2FF03BC01F032
:1001600049F800000748804707480047FEE7FEE7D8
:10017000FEE7FEE7FEE7FEE704480549054A064BB1
:1001800070470000651A0008C1000008A0000020A8
:10019000A0060020A0020020A0020020FEB5054617
:1001A00010460C46184373D0AE468C460020AD1A5C
:1001B00001469C4167D36646002701243D46B61A96
:1001C0009D4102D313463A462124654676462F04C4
:1001D000360C3E432D0CB61A9D4104D3150C1B045E
:1001E0002B4312041034654676462F06360A3E43EA
:1001F0002D0AB61A9D4104D3150E1B022B43120281
:100200000834654676462F0736093E432D09B61A4F
:100210009D4104D3150F1B012B431201241D65467C
:100220007646AF07B6083E43AD08B61A9D4104D3E3
:10023000950F9B002B439200A41C65467646EF0762
:1002400076083E436D08B61A9D411AD392185B4159
:10025000641C16E00018764665464941B71A9D4170
:100260000191009009D36046B11A98418E468446A8
:10027000009801990025401C6941DD0752082A4376
:100280005B08641EE6D57246634603B0F0BDFFE727
:1002900000200146C046C0462A462346F5E701E055
:1002A00004C0091F0429FBD28B0701D50280801CE2
:1002B000C90700D00270704700290BD0C30702D0D5
:1002C0000270401C491E022904D3830702D5028014
:1002D000801C891EE3E70022EEE70022DFE7002210
:1002E00003098B422CD3030A8B4211D300239C4673
:1002F0004EE003460B433CD4002243088B4231D3EB
:1003000003098B421CD3030A8B4201D394463FE07E
:10031000C3098B4201D3CB01C01A524183098B42DE
:1003200001D38B01C01A524143098B4201D34B01C7
:10033000C01A524103098B4201D30B01C01A52412A
:10034000C3088B4201D3CB00C01A524183088B42B1
:1003500001D38B00C01A524143088B4201D34B009A
:10036000C01A5241411A00D201465241104670470C
:100370005DE0CA0F00D04942031000D34042534011
:1003800000229C4603098B422DD3030A8B4212D3D1
:10039000FC22890112BA030A8B420CD38901921103
:1003A0008B4208D3890192118B4204D389013AD040
:1003B000921100E08909C3098B4201D3CB01C01A15
:1003C000524183098B4201D38B01C01A5241430928
:1003D0008B4201D34B01C01A524103098B4201D316
:1003E0000B01C01A5241C3088B4201D3CB00C01A83
:1003F000524183088B4201D38B00C01A5241D9D29B
:1004000043088B4201D34B00C01A5241411A00D21B
:100410000146634652415B10104601D34042002B17
:1004200000D54942704763465B1000D3404201B596
:100430000020C046C04602BD7047704770470000AC
:10044000F0B5F94D0C091E092C402E402F468BB0FB
:10045000A7437DD0B543FCD0002E7AD0002CFCD031
:100460000D465D40ED0F2543AC1BFF25AD0464191F
:100470000894C502440DC9022143500DDC02044317
:100480000120C00701430443D2020191200C110C4A
:1004900000958C46010423468B430A91614609046A
:1004A000E24D8A430991010A7D444919803909784E
:1004B00005464D4301266D18F605751B6943C90CA9
:1004C000640B891C4C436418B5012C1B250C2E04AD
:1004D000B4434C434D43210C691889090591009D93
:1004E000E90701D00121C90704912C460199670849
:1004F000CD072F434C08059DE10B4D432D0C29469C
:100500006646754302950D4645432E46029D7D1B6A
:10051000B44100950D465D4301942C0C2F040D460B
:100520005543AE462D0C3D43029503947546049CFD
:100530002D04641B049406D2029C039D641C0026B7
:1005400075410395029401AC70CC009F7D1B01E0C6
:100550003EE162E1B44109040095079101940599D7
:10056000A4086143090C0C464443650BE7040C46A0
:1005700066467443A646640B3C4303950294744656
:10058000049DE4042C1B049406D2029C039D641C6D
:10059000002675410395029401AC70CC009F7D1B31
:1005A000B44101940C465C430095650FE7000C468E
:1005B0005443A646640F3C43039502947446049D3D
:1005C000E4002C1B049406D2029C039D641C0026AC
:1005D00075410395029401AC70CC009F7D1BB44122
:1005E000AE09AF06049DC900AD092F43049DA406C2
:1005F000AD060495079D344369180791059DE10BED
:100600004D432D0C29466646754302950D464543DC
:100610002E46029D7D1BB44100950D465D4301941D
:100620002C0C2F040D465543AE462D0C3D43029530
:1006300003947546049C2D04641B049406D2029C0A
:10064000039D641C002675410395029401AC70CC97
:10065000009F7D1BB44101948C050694079C890A78
:10066000611800950791019C0599A4086143090C44
:100670000D464543680BEF040D46644665436C0B1D
:100680003C43049FED047D1BAC4602D20025641C54
:100690006841009E019D371B8541084658430195DE
:1006A0000C46460FC5005443600F28436546E400DE
:1006B0002C1B02D20025401C6E41019D3F1AB54102
:1006C0002846BD09800628438446A009BF064E027D
:1006D0000699A40676180743079D002068410A99E9
:1006E000079019430020099B00906046FF191343AF
:1006F0004041E20F64003A43A4460446D71A8C41B5
:10070000A04203D90120009020463A46C70F941812
:1007100040416246D20F2243644664000494009C28
:10072000BE466400D71AA446044602978C41774619
:10073000002F01D1A04204D96046401C8446029A91
:100740002046C40FA64694184041049A0546D20F8D
:10075000224364466400D31A8D417146002901D1B9
:10076000A84202D928461A46641C104301220028D8
:1007700000D0164361020020079B891904465C41A2
:100780000223002C02DB491813466441089DCE0A5F
:100790002D145D194B056705E10A2C050D19089903
:1007A0003E43C9076940002B08D0934006D300227E
:1007B000761C5141002B01D1760876001C4A002D91
:1007C00043DB154241D0AA433FD030460BB0F0BDC9
:1007D00006180D464D41174C7642AC411AD3951878
:1007E0001C465C41134A6D42A24113D301225205BB
:1007F0004C00D4420AD15C00D4420BD04B4002D50D
:1008000092021143E2E749004908DFE75940C90F66
:10081000C90718E000200849D8E7054801420DD172
:100820000342F7D0F2E700000000FF07082C0000A9
:100830000000F07F0000E0FF0000F87F1148594001
:100840000143C01241400020C0E70123089A9B06E3
:100850009A4205DC032252078918C90FC907B5E778
:10086000052252078918074A1143D2125140ADE7B9
:1008700070B515461C4602460B4628462146FFF732
:10088000DFFD70BDFFFFFF7F30B50346CA02400D9C
:100890001043164D164C0A1502D02043002A06DBE1
:1008A000AA1A002A12DDD040FF2A0BDC30BD520507
:1008B000520D01D140004008AA1A07D4D04040424E
:1008C000FF2A01DD002030BD0028FCDD4A00002B9E
:1008D00001D0012000E00020101801225205D04272
:1008E000F0D8C817C043604030BD00001E040000AF
:1008F000000000801F22030C02D10F22000402D04E
:10090000030E03D004E00020014670470002083ABD
:10091000030F01D10001121F830F01D18000921E2D
:10092000002801DB4000521E120551184205C0127A
:10093000411810467047C10FC90700D0404201223C
:1009400092071143D6E701218907D3E710B500F0DC
:1009500009FB006810BD10B5044600F003FB0460FD
:1009600010BD0000F0B50C46871A9C410D46861A52
:100970009D4103D2C01BA141D21963410D0D1F0D32
:10098000C94EEC1BAE435CD07F057F0D0026002FC7
:1009900051D02D05AC46A943DD020123ED0A1B050C
:1009A0001D4320231B1B24D41746E74038187141F0
:1009B0002F46E740CC199D402818314661410C0D67
:1009C00027D161449A4013D50023401C594152005D
:1009D0000ED14008400001224B005205D34207D3FC
:1009E00005204007C14201D5B04900E0B04930467A
:1009F000F0BD6B00002A00D001229A181F23203C72
:100A00001B1B01D5002302E0E540281871410C0DA5
:100A1000D7D0012424050919C407CD074008490887
:100A2000E40F28436144002CD5D00024401C6141D0
:100A30009A40D0D1CDE76A05520DD9D1C90FC90767
:100A4000D5E79C4D4E00002801D0012400E0002491
:100A500034195F00002A01D0012600E00026BE19EB
:100A6000954FAC420CD8AE420AD8B44206D001250C
:100A70006D05EC42BCD010461946F0BD9942FCD041
:100A800000203946F0BDF0B51FB40C460F46811A60
:100A90009F412546861A9D4106D20125ED076F40EC
:100AA000401ABC4152187B41210D1E0D8D1BAC46D6
:100AB0007D4D8D437ED075056D0D7CD00D05AE4608
:100AC000AC431B031B0B794D52429D4120236646CC
:100AD0009B1B14D31746F74038180026009074412A
:100AE00060462F460741E41900989D40281866414A
:100AF00016D4714671189A4025D5012320E0931829
:100B00002A466A415200002B00D0521C1E23203E70
:100B10009B1B002B61DD3541EE1728186641E8D597
:100B2000001876415B1C9A4000D3401C4B05F3181B
:100B30001524E34010D3002B52D071467118D30F07
:100B4000C01802D3491C05B0F0BD0123DB079A424F
:100B5000F9D140084000F6E701225205B21801D150
:100B6000002853D00123CC0ADB029943891E002AB6
:100B700008D1020C03D0020C0004103902E0024636
:100B8000002020390023550B05D112020823550BF4
:100B900001D152010D23550C01D112011B1DD50CA1
:100BA00001D192009B1C150D01D152005B1C202528
:100BB000EE1A01E02CE022E00546F540154398408E
:100BC000CA1AE10769181305C918002ABBDA0320FD
:100BD00040070818C10FC9070FE071466118B2E756
:100BE000F10740080843711071444A000CD00123FA
:100BF0005B059A42A7D2C90FC9070020A3E74905A0
:100C0000490D26D1002001E00028F4D100219AE707
:100C1000284D6600002801D0012100E00021711854
:100C20005F00002A01D0012600E00026BE19224FF5
:100C3000A94210D8AE420ED8B14208D001256D05A8
:100C4000E94206D01946A802414010467BE79C4283
:100C500001D0214677E70020394674E710B50C46ED
:100C60005C4005D50124E4076340FFF70CFF10BD8D
:100C7000FFF778FE10BD30B40C465C4004D501246B
:100C8000E407634030BC6DE630BCFCE670B501247F
:100C9000E40761400D465D4002D4FFF763FE70BD7E
:100CA0006340FFF7F0FE70BDFF0700000000F0FF9B
:100CB0000000F07F0000E0FF0000F87FF0B58B4CF3
:100CC0000F09254689B0BD437BD01D092646AE439A
:100CD000FAD00E465E402740F60F3E43254071D0C5
:100CE00024012142FBD0FF24AD19A4042D1B039540
:100CF00001252D05DB02DB0AC9022B43C90A294362
:100D00001E010901040F130F050121431701880B70
:100D1000820391432D098C46A90B1E438A039543F8
:100D2000B30B9A0396433F09BA0B9403A743029669
:100D30002E467E430497B6464E19D7190C460196A7
:100D4000544305977E43371B7646BF1B3601B64694
:100D5000BE0B361900967646BC043719009C01D3A9
:100D6000641C00946400002F01D001263443029ECD
:100D7000049F754366467E430496760034196E00E0
:100D800034190094029C019E1C196643751BAE46E3
:100D9000069465464519059C05956C43594375466F
:100DA0000891691A0191049E01465143A41B0491C4
:100DB000611A009C0791E10605D0610901221143E7
:100DC00002E072E06EE06109089D00272C0A2D0602
:100DD0006918049D7C412A0A2D066918019D62410B
:100DE000AC0DAD026D185441079A910D9202551940
:100DF0006141029A644658435443069B059A5A43FC
:100E0000121A131B9A0E9B015B187A41010B000505
:100E1000C3185141220A200644195A419A4200D26D
:100E2000491C01204002814203D315230226F643C8
:100E300002E014230326F6432020C51AA9401746D2
:100E4000AF40DA400A4320460399D840091473188A
:100E500019055118039A3843D2075140AC4009D0C4
:100E60000122944006D30022401C5141002C01D1A4
:100E7000400840001E4A934212D301220398920672
:100E8000904207DB0520400709181A480143C012A9
:100E9000414004E0032040070818C10FC9070020A3
:100EA00009B0F0BD0020F107FAE705180C464C41E7
:100EB00011486D42A04115D394181A465A410E4864
:100EC000644290410ED301204A004005824209D37A
:100ED0005A00824206D35940C90F084AC907002068
:100EE0001143DDE700200649DAE700000000FF07B4
:100EF000FE070000FFFFFF7F0000E0FF0000F07F23
:100F00000000F87F70B505464800440D124B0020E4
:100F1000002C0AD0634008D09A4206DA6642B242F8
:100F200003DD12054019514170BD002C08D0002B83
:100F300009D0C90FC907002AF6DB084A114370BD62
:100F4000C90FC90770BD28460A03104302D000200C
:100F5000034970BD284670BDFF0700000000F07F08
:100F60000000F87F0048704740000020F8B5224C90
:100F70004E00069DA6420AD8A64201D1002806D1FD
:100F80005E00A64203D8A6420AD1002A08D00D244A
:100F9000240425422CD02946002000F0DAF8F8BDC0
:100FA0000C461C430CD4994202D0EFF30080F8BDEC
:100FB000904202D0EFF30080F8BDEFF30080F8BD5F
:100FC00009242407E5008B4206D0EFF30080A043FC
:100FD000591A06D2284304E0101A05D3EFF3008013
:100FE000A04380F30088F8BDEFF30080A043F1E751
:100FF000009500F0C5F8F8BD0000E0FFF0B53D4BEE
:1010000002460C461C400020002C63D03A4D8B4316
:1010100066D000296BDB0B0D1D05A94301252D05AD
:1010200029430124FD33E34001D392184941FF33A2
:1010300081339C468B02940D0121234389074C4246
:10104000920200271B198C105D1A04D42D1B02D4A8
:101050002B466500491992185B416408F4D15C1A6B
:1010600008D40125ED07EE175519744102D42A461C
:101070002346491C94185B41012292071D46E61B3A
:101080008D4106D4B61A854103D42B46550034460B
:101090007F1924195B415208802AEFD1234300D0E5
:1010A000022338460A22D04001D3012213438A0585
:1010B00010436246890A12058918002B09D00122C3
:1010C000D34002D30022401C5141002B01D14008E3
:1010D0004000F0BD0B03134307D0C90FC907F0BD93
:1010E0000803104303D1002901DB1046F0BD0020A6
:1010F0002946F0BD0000F07F0000F87F00487047EF
:10110000400000207546FFF7F9FFAE46050069462E
:101110005346C008C000854618B020B5FFF72CF82C
:1011200060BC00274908B6460026C0C5C0C5C0C57A
:10113000C0C5C0C5C0C5C0C5C0C5403D49008D467D
:10114000704710B50446C046C0462046FFF703F876
:1011500010BDC80212D54803400F002804D0C803B0
:10116000C043012188407047EFF30080000100096F
:1011700003210907084380F3008870470020704767
:1011800010B500200249029A00F004F810BD0000DA
:101190000000F87F10B50C461107090F092904D08B
:1011A0000A290AD008290CD104E011460820FFF7CB
:1011B000D0FF06E0510606D501E0510601D5012019
:1011C000C007214610BDD10607D501010909CC0889
:1011D0004907000E0006044309E0410F20024907B9
:1011E000000A0143200E00061D22D141014308469A
:1011F000E7E7000001491820ABBEFEE72600020029
:101200007047000010B51B4841690122D204114308
:10121000416119490A6805235B021A430A601122D9
:1012200012040A62C169012292041143C16100F0F3
:101230003DF94B21C901FFF752F881B20F48C16057
:1012400001688214914301600168120491430160B6
:1012500001682022114301600168082211430160E6
:1012600001680422114301600168012211430160F9
:1012700010BD000000100240000800480048004077
:101280000448C1698906FCD5024820308088C0B274
:101290007047000000480040F8B50A4F0025064698
:1012A000084C203709E0E0690006C017401CFAD15D
:1012B00039810A2000F008F86D1C715D0029F2D117
:1012C000F8BD00000048004070B5044600F00EF87C
:1012D0000546601C02D004480078241800F006F887
:1012E000401BA042FAD370BD300000200148806846
:1012F0007047000030000020024881680278891899
:10130000816070473000002010B506480168102247
:1013100011430160032000F007F800F027F80020D7
:1013200010BD00000020024070B504460D4D7D2028
:101330002978C000FEF7D3FF01460B480068FEF78E
:10134000CEFF00F0EFFA002809D1042C07D20022CA
:101350002146401E00F01EF800206C6070BD012088
:1013600070BD0000300000203C00002008B5084897
:101370008169012211438161816911400091C26933
:1013800001040A43C261C0690840009008BD000022
:101390000010024010B500F049FC10BDF8B50F4632
:1013A00006005ED03C4D2868C007C00FB84209D285
:1013B000286840084000384328602868C007C00FEC
:1013C000B8424ED13068354C81070CD5400704D562
:1013D000606807210902084360606068F021884363
:1013E000B168084360603078C0072BD0706801286E
:1013F00010D0022810D0032811D0216889070029B5
:101400002FDA61688908890001436160FFF76EFF88
:10141000009010E0216803E021688901EFE7616B2B
:101420008903ECE7FFF762FF0099411A1C488142EB
:1014300001D90320F8BD60680C210840716889005B
:101440008842EFD12868C007C00FB8420BD928687E
:1014500040084000384328602868C007C00FB842E1
:1014600001D00120F8BD3078400706D5606807211B
:1014700009028843F1680843606000F01DF8616864
:10148000084A0906090F515CC84007490860032053
:10149000FFF74AFF0020F8BD002002400010024084
:1014A00088130000A43000083C00002001480068B8
:1014B000704700003C00002070B5154A51680C20B0
:1014C0000B4603401348042B05D0134D082B03D0C3
:1014D0000C2B00D1284670BD8B02104C1B0FE45C16
:1014E000D26A0E4B1207120F1033C9039A5C890F90
:1014F000022901D0032901D0002301E0002328465E
:101500000021FEF74BFE214600F062FB70BD00009B
:101510000010024000127A00006CDC0284300008E7
:10152000FEB5040070D02078F94EFA4DC00748D0BF
:1015300068680007800F01281FD068680007800FC7
:10154000022804D16868C003800F022815D06168A2
:10155000012919D001208004002901D0052917D0C4
:101560002968B1432960296881432960606800289F
:101570001BD0FFF7BBFE074613E02868800320D589
:1015800060680028CED01CE0286830432860EDE772
:10159000296801432960F7E7FFF7A8FEC01B64280C
:1015A00070D828688003F7D50BE0FFF79FFE074649
:1015B00004E0FFF79BFEC01B6428F1D82868800375
:1015C000F7D4207880073FD568680007800F14D0D3
:1015D00068680007800F022804D16868C003800F84
:1015E00001280AD0E068002828681ED0012108439D
:1015F0002860FFF77BFE07460CE0286880070CD5C3
:10160000E068012800D108E080E1FFF76FFEC01B11
:101610000228C5D828688007F7D52868F8218843AC
:101620002169C900084328600EE040084000286096
:10163000FFF75CFE074604E0FFF758FEC01B0228D8
:10164000AED828688007F7D42078000723D5E06952
:101650000028686A0FD0012108436862FFF746FE40
:10166000074604E0FFF742FEC01B022898D8686ACC
:101670008007F7D50FE0400840006862FFF736FEAC
:10168000074605E0C3E0FFF731FEC01B022887D8FC
:10169000686A8007F7D4207804274007002861DAB9
:1016A00000200190E869C00008D4E969B806014348
:1016B000E961E969014001200091019096480168C3
:1016C000C90511D40168821511430160FFF70EFEB0
:1016D000009005E0FFF70AFE0099401A642898D8A8
:1016E0008D480068C005F5D5A06801280AD00028FB
:1016F00001D0052811D0286A400840002862286AD5
:10170000B84302E0286A012108432862A068002843
:1017100012D0FFF7EBFD00900AE0286A38432862F8
:10172000F0E7FFF7E3FD0099411A7C4881426ED84B
:10173000286A8007F5D50DE0FFF7D8FD009006E098
:10174000FFF7D4FD0099411A744881425FD8286A96
:101750008007F5D40198002804D0E969012000072A
:101760008143E9612078C00635D5606901280CD035
:10177000401D686B24D038436863686B40084000A4
:101780006863FFF7B3FD074622E0686B3843686380
:10179000686B012108436863FFF7A8FD074604E072
:1017A000FFF7A4FDC01B022831D8686B8007F7D56E
:1017B000686BF8218843A169C900084368630AE09F
:1017C000B8436863F4E7FFF791FDC01B02281ED8F9
:1017D000686B8007F7D42078800637D568680007E3
:1017E000800F032814D068680007800F022804D1F6
:1017F0006868C003800F03280AD0206A0028686B3D
:1018000016D030436863FFF771FD06460CE062E0D6
:10181000686B80031AD5206A012877D116E0FFF79C
:1018200065FD801B022856D8686B8003F7D50DE054
:10183000B0436863FFF75AFD064604E0FFF756FD24
:10184000801B022847D8686B8003F7D4606A0028A1
:1018500066D069680907890F022942D00126360639
:101860000228286805D0B0432860FFF73FFD0446F2
:1018700033E0B0432860FFF739FD074604E0FFF787
:1018800035FDC01B022826D828688001F7D4E86AF5
:10189000216B000900010843E862A16AE06A08437D
:1018A00069687B22D203914308436860286830430B
:1018B0002860FFF71BFD044604E0FFF717FD001B3F
:1018C000022808D828688001F7D529E0FFF70EFD27
:1018D000001B022801D90320FEBD28688001F5D431
:1018E0001EE00128F8D06868E96A0322D203A36ADF
:1018F00002409A420AD10907226B090F914205D191
:101900000F2189040840E16A884209D00120FEBD08
:101910000000010000100240007000408813000029
:101920000020F4E7094910B5401E884201D9012082
:1019300010BD074C60610321081F00F077F90020FB
:10194000A06107202061002010BD0000FFFFFF0004
:1019500000E000E0FEE700000B4841690122D204EC
:101960001143416109480268FF2109038A4302606B
:10197000026855231B031A430260C2688A43C2608F
:1019800082688A4382607047001002400008004865
:10199000FEE770470F4901220978120449008A18AE
:1019A000092189020A430C494A608A69520702D414
:1019B0008A69D206F9D58A69520705D5486AC0B244
:1019C0008A695206FCD570470121044A4902916197
:1019D0007047000000000020005800400008004848
:1019E0007047000000B5552001F0DCFA01F06AFAFA
:1019F000044A107001F066FA507000061178000C6D
:101A0000084300BD0700002010B5FFF775FC10BDAE
:101A100010B592B034216846FEF75FFC00240F94A5
:101A20001220009001200D940390059010200E9438
:101A300010940490069009946846FFF771FD002801
:101A400001D072B6FEE707200D900E940F9400218E
:101A500010940DA8FFF7A2FC002801D072B6FEE793
:101A600012B010BD7047000010B50848416A084A1E
:101A70008918084A518206494942416200F0C0FA79
:101A80000548016949084900016110BD0004004092
:101A90000180FFFF180000200010004010B5012059
:101AA0008007416A074A8918074A51810549494216
:101AB000416201F013FA05480169490849000161D2
:101AC00010BD00000180FFFF18000020001400403E
:101AD0000D4909220978520349008A180B494A60C6
:101AE0008A69920702D48A69D206F9D58A69D2072F
:101AF00004D0886288694006FCD5704701200449FB
:101B0000400288617047000000000020005800403B
:101B10000008004830B5134A112312785B035200C5
:101B2000D318114A536093699B0702D49369DB066B
:101B3000F9D593690E4CDD070C4B01D0906200E0A3
:101B4000A3619069800702D49069C006F9D59069B5
:101B5000C00704D0916290694006FCD530BDA361F6
:101B600030BD0000000000200058004000020000CE
:101B70000008004810B5144841690122520411437D
:101B80004161C16992001143C1610920C006016829
:101B900009090901016001680A2211430160016A13
:101BA000442211430162FFF781FC4B21C901FEF77A
:101BB00096FB0649C8608868402210438860086820
:101BC000AD221043086010BD00100240004C0040E0
:101BD000F8B5040C8BB2264682B25E430D0C10465B
:101BE000370C5843360480190021794116466E435C
:101BF000370C36048019794126466E438919F8BDA1
:101C00004900CA020243100000D004204A0D01D04E
:101C100001221043044A490D914201D10221084397
:101C2000012800D105207047FF0700008307FF222D
:101C3000DB0E9A408907090E9940002808DB8308CB
:101C400009489B001B1818689043084318607047A8
:101C50000007000F0838830804489B001B18D86948
:101C600090430843D861704700E400E000ED00E0D5
:101C7000F8B504464F1EC8000838211815461E4600
:101C8000086849683A4606239A4310D02A463346E4
:101C9000FFF714F83A46D200083AA3181A687F1ED4
:101CA0005B68FEF7DBFF06223B469343EED1022F33
:101CB00023D0042F11D0062F2FD12A463346FEF70A
:101CC000FDFFE36AA26AFEF7C9FF2A463346FEF724
:101CD000F5FF636A226AFEF7C1FF2A463346FEF724
:101CE000EDFFE369A269FEF7B9FF2A463346FEF726
:101CF000E5FF63692269FEF7B1FF2A463346FEF726
:101D0000DDFFE368A268FEF7A9FF2A463346FEF727
:101D1000D5FF63682268FEF7A1FFF8BD002210B569
:101D2000134610460149FEF78BFB10BD0000F03F43
:101D300010B50122FFF7E6F810BD10B5FEF78EFFD3
:101D400010BD002210B5134610461146FEF778FB71
:101D500010BD000010B50721024A00200907FFF757
:101D6000D1F810BD01030000034A10B5002011078F
:101D7000FFF7C8F810BD000001FDFFFF30B518499E
:101D800048690122920410434861164802683123D1
:101D9000DB051A43026042680523DB021A434260F6
:101DA000426A114B1A434262104A1368104C234393
:101DB0001360CA6903031A43CA610F4C0D492161BC
:101DC0002168012211432160950385610B488178C8
:101DD0004078FFF79FFE60682843606030BD0000D8
:101DE00000100240000400480010500000080048A5
:101DF00001500500130F4210005800400000002061
:101E0000F8B54A002B4B520DD6182B4A0C46054606
:101E1000142E2BDA002E12DA284BFEF71FFF0022B9
:101E2000134601F0FBF840D2002C02DB00242546CB
:101E30003BE060004008284337D0214C14E0214F9C
:101E40000B46F7403B402B4331D01C4BFEF706FFBF
:101E50000022134601F0E2F827D2002C03DA012019
:101E60000005F0400419BC4300251EE0332E1EDCA3
:101E700033460027143BFF43DF40384217D00F4B57
:101E8000FEF704FF0022134601F0C8F80DD2002C23
:101E90000ADA142E0CD03420811B0120884040190E
:101EA000A84200D2641C0546BD4321462846F8BD21
:101EB000641CF9E701FCFFFF9C7500883CE4377E59
:101EC0000000F0BFFFFF0F003CB50F4DE878FFF7B3
:101ED000FFFDFFF75FFD694608700C4B58681C1446
:101EE000204358602879FFF7F3FDFFF753FD69465B
:101EF000087158682043586008790978000208433F
:101F00006946088008883CBD000000200058004059
:101F100001200F49C00288624869072210434861C6
:101F20000C48826801239B051A438260886804225A
:101F30001043886008684007FCD5054840300068B9
:101F4000054B00B21880CB685340CB60704700004F
:101F500000240140002701400A000020F0B50024C1
:101F600085B00E460546002807D00027002D0FDA61
:101F70000A2A08D0002005B0F0BD302030700020C3
:101F800070700846F7E701272D2030703C466D42FF
:101F90001046FEF7D0FC0191009000F071F802901D
:101FA00003912846FEF7C7FC00F06AF8039B029AEB
:101FB000FEF746FAFFF724FFFEF766FCC7197F1C01
:101FC00017E0381B401EFEF7B6FC02460B4601998F
:101FD000009800F079FAFEF757FC01460290284677
:101FE000FEF787F9024630303055029951436D1A99
:101FF000641CBC42E5DB002030553046BBE70000E6
:1020000070B5174C1220205EC10F0818218A4010AD
:10201000081AA0826079A18A4843E1894018E081CA
:102020000E20205E002801DA002006E00E21615E0D
:102030001920C001814200DCE089E0812079A18A79
:102040004843E189401800B2451101D5002502E05E
:10205000642D00DD6425E8B200F004F8E57070BD81
:102060001800002010B5642806D8044CE26A6421E8
:102070005043FEF734F9606310BD000000200040BB
:10208000F0B5C54A00248FB091420ADA4B005B08D4
:10209000934206D801254A006D05EA4205D1002881
:1020A00003D0FFF745FE0FB0F0BD01252D05A94275
:1020B00019DA034308D0002910DA0120FEF74BFC9F
:1020C000FFF73FFE0FB0F0BD0220FEF744FCFFF724
:1020D00025FE0122D20751400FB0F0BD3524E44364
:1020E0003622FEF70FFF0A15AC4B1219D4180A035B
:1020F000120BAB49AB4B56182E4031465940114399
:102100000192321512190B920022FEF7B4FD019ACA
:102110000446921C1003A44E000B0D467E44032877
:1021200060D220467368326800F046FF1CD10B98DD
:10213000002815D0FEF7FFFB04460E469B4A9C4B39
:10214000FEF7BCFD0D4607469A4A9B4B204631469A
:10215000FEF7B4FD3A462B46FEF780FD0FB0F0BD0A
:10216000716830680FB0F0BD944A954B20462946FF
:10217000FEF7A4FD0022934BFEF788FD06460F46AE
:1021800022462B4610461946FEF798FD32463B463E
:10219000FEF794FD06460B980F4600281DD0FEF76B
:1021A000CAFB824A824B05910490FEF787FD3246B6
:1021B0003B46FEF76BFD22462B46FEF75CFD0446D0
:1021C0000D467C4A7C4B05990498FEF777FD224624
:1021D0002B46FEF750FD0FB0F0BD0B4632462046B1
:1021E0002946C4E0012300229B072046FEF736FD66
:1021F00002460B4620462946FEF722F906460F46C0
:102200000B98FEF798FB32463B460591049010462A
:102210001946FEF753FD09910C906B490198099BF3
:10222000421800920C9A19461046FEF747FD0246E6
:1022300007910A90654901980B1A6548019303219B
:102240007844079BFFF714FD079B0A9AFEF736FDBB
:102250000E905F480D9104217844079B0A9AFFF77E
:1022600007FD099B0C9AFEF729FD019B009A1A4372
:1022700000920D9B0E9AFEF7F1FC009A01910C90D2
:10228000002A4DDD0022D24320462946FEF73AFEC1
:1022900022462B46FEF712FD00910A900B9800286B
:1022A0002BD0424A424B05990498FEF707FD07914F
:1022B0000E90019B0C9A00990A98FEF7CFFC3246CB
:1022C0003B46FEF7FBFC079B0E9AFEF7C7FC009B04
:1022D0000A9AFEF7DBFC22462B46FEF7CCFC0446AE
:1022E0000D46344A344B05990498FEF7E7FC224624
:1022F0002B46FEF7C0FC0FB0F0BD019B0C9A0A986C
:10230000FEF7ACFC32463B46FEF7D8FC009B0A9A2F
:10231000FEF7BCFC22462B46FEF7B8FC0FB0F0BD22
:102320000B98002827D0214A214B05990498FEF7E5
:10233000C5FC0791009020462946019B0C9AFEF7A8
:102340009AFC32463B46FEF7B9FC079B009AFEF723
:1023500092FC22462B46FEF78EFC04460D46154A9B
:10236000154B05990498FEF7A9FC22462B46FEF76B
:1023700082FC0FB0F0BD0B46204629460C9AFEF7B2
:102380007AFC32463B46FEF799FC22462B46FEF786
:102390007DFC0FB0F0BD00000000F07F01FCFFFFEE
:1023A000645F09000000F03FD8100000763C7935EA
:1023B000EF39EA3D0000E0FE422EE63F5555555507
:1023C0005555D53F0000E03F86EBF9FF51B80600B8
:1023D000F40E000086B0FEF797FFFFF719FB2C48BC
:1023E00042690121C9040A434261406908400590DD
:1023F000FFF7C0FBFEF706FFFFF7AEFAFFF7BEFCE4
:1024000024A026A627A52BA4FEF746FF2046FEF70C
:1024100043FF7D27FF002846FEF73EFF2046FEF7DC
:102420003BFFFEF72DFF31280DD032280ED0332888
:1024300013D03046FEF730FF2046FEF72DFF38461A
:10244000FEF742FFE7E7FFF7CDFA01E0FFF73CFDBB
:102450000A226946FFF782FDECE700200A2269465E
:10246000FFF77CFD059014A0FEF716FF0598FEF718
:1024700013FF2046FEF710FFFFF74AFD0A226946C8
:10248000FFF76CFD05900EA0FEF706FF0598D1E75B
:102490000010024073746172740000004572726F24
:1024A000720000004E657720436F6D6D616E643A77
:1024B000000000000A0000004C6566743A2000002D
:1024C00052696768743A2000F0B51FB496B084462C
:1024D0000C460246199D1898039049006800630055
:1024E000490840080193002A01D0012600E0002697
:1024F0009E19FE4BF6185B109E422BD36E00039F75
:102500000296002F00D00127F719F84EF84BBE199C
:102510009E421FD3039E0346F64F334309D03B46EA
:102520009C4201D1002A04D0019B002A05D001263B
:1025300004E0002039461BB0F0BD00269E19EE4B8A
:102540009E4207D8039F029E002F00D00127F61954
:102550009E4207D92B4660462146189AFFF7EDFBAD
:102560001BB0F0BD0023002C29DAE44EB04226DA7D
:10257000E34EB04201DB022321E0DE4EB0421EDB1F
:10258000E04E070DBE19142E09DD3427BF1B039E34
:10259000FE400196BE40039FBE420BD00FE0039F5A
:1025A000002F0CD11427BF1B0646FE400196BE40EB
:1025B000864204D1019BDE07F60F02239B1B0E46C9
:1025C000164318D1002D16DA002C03D0022B01D0AF
:1025D000012B06D00220FEF7BEF9FFF79FFB1BB0D0
:1025E000F0BD0220FEF7B7F9FFF798FB0122D207F2
:1025F00051401BB0F0BD039E002E61D1BF4EB042D2
:1026000020D1C148844201D1002A08D0B948814272
:1026100009DB002D10DB189829461BB0F0BD002007
:10262000B4491BB0F0BD002D06DA01222946D207BD
:10263000189851401BB0F0BDB44979440868496806
:102640001BB0F0BDAB4FB84225D1002D1FDA0029D9
:1026500004D0B14212D1002A09D018E0002A72D168
:10266000A649E20F0020D20711431BB0F0BD0020A5
:10267000E20F0146D20711431BB0F0BDB14206DAAA
:10268000234600203946FDF7DBFE1BB0F0BD1046A7
:1026900021461BB0F0BDB14212DA0126B607B542A1
:1026A00003D1234610461946FEE3994EB54207D1A1
:1026B000261E05DB1046314600F050FC1BB0F0BD75
:1026C00067007F081646002A40D100290AD08B4AAD
:1026D000914229D1002C0EDD002D1CDB002011467B
:1026E0001BB0F0BD022B16D0002C14D0012B12D140
:1026F000002C14DB0FE0002C28DA002D09DB012B65
:1027000003D000207D491BB0F0BD002081491BB0E3
:10271000F0BD012B03D0002001461BB0F0BD00200E
:102720000121C9071BB0F0BD724A91420ED1002CA5
:1027300001DA002B17D0022B06D00020C043FEF791
:10274000FAF81BB0F0BD90E20120F8E7E217521C46
:1027500094461A4307D000220892664C62465B1EDC
:102760001A4307D009E00120FEF7F5F8FFF7E9FA70
:102770001BB0F0BD0022644C0892674A90427DDD98
:10278000664B674A98421FDD914202DC002D05DB53
:102790004DE05848814217DB002D48DD0220FEF74E
:1027A000DAF8FFF7D7FA05460E460022534B2146CA
:1027B0000898FEF783FA084671004908C00FC00761
:1027C000014328461BB0F0BD914215DA002D2EDAE8
:1027D0000220FEF7C0F8FFF7BDFA05460E460022BC
:1027E000464B21460898FEF769FA72005208C80F56
:1027F000C0070243114617E03E4B994223DD002DEE
:1028000015DD0220FEF7A7F8FFF7A4FA05460E46ED
:1028100000223A4B21460898FEF750FA084671000C
:102820004908C00FC007014328461BB0F0BD022075
:10283000FEF791F8FFF798FA49004908E20FD2072E
:1028400011431BB0F0BD002230463946FEF713FAA3
:10285000012205460E46D243FEF754FB314A324B65
:10286000FEF714FA2A463346FEF728FA0022284BD0
:10287000FEF70CFA07462A46334600E064E003916F
:1028800010461946FEF71AFA3A46039BFEF716FA67
:102890000746032209915207244B28463146FEF78A
:1028A0000DFA07910C90224A204B38460999FEF701
:1028B00005FA074601911F4A1F4B28463146FEF78D
:1028C000FDF93A46019BFEF7D6F907460B4602464C
:1028D000099107990C98FEF7C1F900250E46284684
:1028E000079B0C9AFEF7C7F93A4627E0FFFF1F0047
:1028F000FFFF0F000000F03F0000E0FF0000F07F4E
:102900000000404301FCFFFF0000F0BFBA0B0000D5
:102910000000E03F0000F0FF0000E0410000F04355
:10292000FFFFEF3F555555555555D53F4715F73FD7
:10293000FE822B6544DF5DF80BAE543E099BFEF72B
:10294000A5F902460B4652E1012500202D05A942BA
:1029500007DA352230463946FEF7D4FA06463420E7
:10296000C0430A151218FE48101803900803FD49C9
:10297000000B01430F46FC49884201DC002003E0C4
:10298000FA49884202DA0120119005E000201190F6
:102990000398401C7F1B039011980597C200F448D0
:1029A0000F927844801843680268394630460D9388
:1029B0000292FEF760F907910C9030460D9B029A47
:1029C0000599FEF74BF902460B460020E549FDF755
:1029D00037FD09910490079B0C9AFEF76FF912904E
:1029E00000201090E3480D46784400680E900121C5
:1029F00078104907084311990D9B8904401801215B
:102A0000C90447183946029A0E98FEF734F932463F
:102A1000059BFEF73BF902460B4629461098FEF748
:102A20004DF9064602913B4629460E9A1098FEF74C
:102A300045F9079B0C9AFEF729F93246029BFEF7EF
:102A40001AF9099B049AFEF739F90591129A0A902E
:102A50002B4610461946FEF731F906460246C6488F
:102A60000F460B4606217844FFF702F932463B46F3
:102A70000091049010461946FEF720F9009B049A35
:102A8000FEF71CF906460F462B461946129A109877
:102A9000FEF7E4F8059B0A9AFEF710F932463B462A
:102AA000FEF7DCF8109A079104902B461046194661
:102AB000FEF704F9B14E0022334609910290FEF769
:102AC000CDF8079B049AFEF7C9F800200746024696
:102AD00033460091FEF7CFF8099B029AFEF7CBF838
:102AE000079B049AFEF7D2F806460D913A4629460E
:102AF000009B1098FEF7E2F807910C902B463046A9
:102B0000129A0D99FEF7DAF805460E463A46009BF2
:102B100005990A98FEF7D2F833462A46FEF79EF842
:102B200002460B460746099107990C98FEF796F85E
:102B300000250E462846079B0C9AFEF79CF83A465D
:102B4000099BFEF7A3F807460722099152078C4B11
:102B500031462846FEF7B2F807910090894A884B23
:102B600038460999FEF7AAF807460191864A874B2D
:102B700031462846FEF7A2F83A46019BFEF76EF86A
:102B8000834B7B440F9A9B181A685B68FEF766F8C4
:102B9000029009910398FDF7CEFE05910490099BE0
:102BA000029A07990098FEF759F87A4B7B440F9ADE
:102BB0009B181A685B6817460393FEF74FF8059B4E
:102BC000049AFEF74BF80E462846059B049AFEF73A
:102BD00052F83A46039BFEF74EF8079B009AFEF721
:102BE0004AF8099B029AFEF751F802460B461999DA
:102BF00000200C900F461898FEF760F802910490A0
:102C00003B460C9A19991898FEF735F82A46334630
:102C1000FEF754F8029B049AFEF720F809910E90F3
:102C20002A46334639460C98FEF748F806460F46C2
:102C3000099B0E9AFEF712F8574A0D46914220DB87
:102C40005242AA18024310D132463B46FEF713F80F
:102C500004900391514A524B09990E98FDF7FEFFDB
:102C6000039B049A00F0DAF91ED20220FDF773FEEE
:102C7000FFF770F849004908E20FD20711431BB073
:102C8000F0BD6A00474B52089A420DD3464AAA1833
:102C9000024300D0CBE532463B46FDF7ECFF099BF3
:102CA0000E9A00F0BBF9F5D96800002340082C49C2
:102CB0000393020D3D4B5218984223DD012000057D
:102CC000521CD04042195000400D401838497944F8
:102CD000096813468C463749C1408B4312030121D2
:102CE000120B090551181422101AC1400391002D2E
:102CF00001DA48420390624630463946FDF7BBFF91
:102D000006460F4632463B4609990E98FDF7A6FF48
:102D100000252A46284B28460591FDF7CFFF07914D
:102D20000C90264A264B28460599FDF7C7FF0091CF
:102D3000029032463B4628460599FDF79CFF099BC9
:102D40000E9AFDF7A3FF1F4A1F4BFDF7B7FF009B2D
:102D5000029AFDF783FF07460B460246099135E0CC
:102D600001FCFFFF0000F03F8E9803007AB60B00D5
:102D7000CA0700000C0800003607000000000840E9
:102D800009C7EE3FFD033ADCF5015B14E02F3EBEC0
:102D90000A060000D005000000009040FE822B656E
:102DA0004715973C00CC904000346F3F0000E03F57
:102DB00026050000FFFF0F00432EE63F396CA80CEC
:102DC000615C20BEEF39FAFE422EE63F07990C986F
:102DD000FDF744FF05460E46079B0C9AFDF74BFF97
:102DE0003A46099BFDF752FF09912A4633460E9059
:102DF00010461946FDF762FF074602462F480B466C
:102E0000059105217844FEF733FF3A46059BFDF70F
:102E100055FF2A463346FDF739FF074601912846FC
:102E20003146099B0E9AFDF749FF099B0E9AFDF763
:102E300015FF012304910C9000229B07384601994D
:102E4000FDF719FF05910E903A4628463146019B41
:102E5000FDF734FF059B0E9AFDF7F2FA049B0C9ADE
:102E6000FDF709FF2A463346FDF705FF0022144B04
:102E7000FDF70CFF064603980D460005411909159C
:102E8000002912DC30462946039AFEF73BF8FEF78C
:102E9000B7FE042801D1FEF767FF30462946039AA2
:102EA000FEF730F8064601E004E029180B463246EA
:102EB00021460898FDF702FF1BB0F0BDC8030000D3
:102EC0000000F03F0448C1698906FCD50248203063
:102ED0008088C0B270470000004C004070B5174CAD
:102EE0000A20205EC10F081821894010081AA0810D
:102EF000A078A1894843E1884018E0800620205E40
:102F0000002801DA002006E00621615E1920C001D8
:102F1000814200DCE088E0806078A1894843E18854
:102F2000401800B2451101D5002502E0642D00DDF6
:102F30006425E8B200F004F8257070BD1800002088
:102F400010B5642806D8044CE26A64215043FDF7AA
:102F5000C6F9A06310BD0000002C0140F8B506467C
:102F60000C46FEF74BF8051E0F4600D0012001432A
:102F700049000B484908411AC90F0DD0002E01D055
:102F8000012100E000210C4361004908401AC00FF4
:102F900002D10120FDF7DFFC28463946F8BD0000CC
:102FA0000000F07F0349CA691206FCD501492031AF
:102FB00008817047004C004070B501250C002D05BC
:102FC0001C4310D4EC4206D4AC420AD4994200D03F
:102FD00070BD904270BDE94217D4EB4215D49942BE
:102FE00070BD894270BDEC4206D5AC42F9D58B422A
:102FF00000D070BD824270BD6D004C00EC4204D226
:103000005C00EC4201D28B4270BD034C30B4FDF742
:10301000ADFF30BC70BD00BF1900120470B50125B2
:103020001C002D050C4310D4EC4206D4AC420AD44B
:103030008B4200D070BD824270BDEB4217D4E94292
:1030400015D48B4270BD9B4270BDEC4206D5AC429C
:10305000F9D5994200D070BD904270BD6D005C0002
:10306000EC4204D24C00EC4201D2994270BD0FB444
:10307000034C0CBC03BC30B4FDF778FF30BC70BD12
:103080001900160402030405060708090A0B0C0DB3
:103090000E0F10100102030405060708090A0B0CA5
:1030A0000D0E0F10000000000000000001020304DC
:1030B0000607080980807F7E7D7C7B7A7978777629
:1030C00076757473727171706F6E6E6D6C6C6B6A05
:1030D0006A696868676666656464636362616160A3
:1030E000605F5F5E5E5D5D5C5C5B5B5A5A59595820
:1030F000585757565655555554545353525252518A
:10310000515050504F4F4F4E4E4D4D4D4C4C4C4BDF
:103110004B4B4A4A4A494949484848474747474626
:103120004646454545444444444343434342424262
:10313000424141410000000004FA97999999D93F12
:10314000AF788E1DC571CC3F9FC678D0099AC33F1A
:10315000935555555555E53F599322942449D23FEF
:10316000DE03CB966446C73F44523EDF12F1C23FB6
:10317000000000000000F03F000000000000F83FE9
:1031800000000000000000000000004003B8E23F23
:10319000000000000000000006D0CF43EBFD4C3ED5
:1031A000033333333333E33FFFAB6FDBB66DDB3FCA
:1031B0004D268F515555D53F01411DA96074D13F12
:1031C00065DBC9934A86CD3FEF4E454A287ECA3F0C
:1031D0003E5555555555C53F93BDBE166CC166BF8E
:1031E0002CDE25AF6A56113FF16BD2C541BDBBBE87
:1031F000D0A4BE726937663E0000000000000000E7
:1032000020320008000000204000000004010008F7
:103210006032000840000020600600002001000825
:103220002980039A9B0000000000000000000000BD
:103230000000000000000000001E1E001E1E000016
:10324000000000000000000000000000000000007E
:1032500001000000040000000000000000127A00DD
:04000005080000C12E
:00000001FF
